:020000040800F2
:1000000060060020D1010008E1050008A3050008F2
:10001000A70500088B020008550800080000000032
:10002000000000000000000000000000C106000801
:100030008F0200080000000069060008E5070008BC
:10004000EB010008EB010008EB010008EB010008E0
:10005000EB010008EB010008EB0100089102000829
:10006000B9020008EB010008EB010008EB010008F1
:10007000EB010008EB010008EB010008EB010008B0
:10008000EB010008EB010008EB010008EB010008A0
:10009000EB010008EB010008EB010008EB01000890
:1000A000EB010008EB010008EB010008EB01000880
:1000B000EB010008EB010008EB010008EB01000870
:1000C000EB010008EB010008EB010008EB01000860
:1000D000EB010008EB010008EB010008EB01000850
:1000E000EB010008EB010008EB0100080000000034
:1000F0000000000000000000000000000000000000
:100100000000000000000000EB010008EB01000807
:10011000EB010008EB010008EB010008EB0100080F
:10012000EB010008EB010008EB010008EB010008FF
:10013000EB010008EB010008EB010008EB010008EF
:10014000EB010008EB010008EB010008EB010008DF
:1001500000F002F800F02CF80AA090E8000C8244AD
:100160008344AAF10107DA4501D100F021F8AFF28A
:10017000090EBAE80F0013F0010F18BFFB1A43F085
:1001800001031847E8060000F806000000230024D9
:1001900000250026103A28BF78C1FBD8520728BF97
:1001A00030C148BF0B6070471FB51FBD10B510BDF3
:1001B00000F031F81146FFF7F7FF00F04DFB00F0BB
:1001C0004FF803B4FFF7F2FF03BC00F057F800004C
:1001D0000948804709480047FEE7FEE7FEE7FEE7DB
:1001E000FEE7FEE7FEE7FEE7FEE7FEE70448054917
:1001F000054A064B70470000E90700085101000856
:1002000060000020600600206002002060020020E4
:10021000704770477047754600F02CF8AE460500F1
:100220006946534620F00700854618B020B5FFF711
:10023000DDFFBDE820404FF000064FF000074FF013
:1002400000084FF0000B21F00701AC46ACE8C009F4
:10025000ACE8C009ACE8C009ACE8C0098D467047FD
:1002600010B50446AFF300802046BDE81040FFF70C
:10027000A8BF000000487047000000200149182076
:10028000ABBEFEE726000200704700BFFEE77047E6
:1002900010B5022000F05CF850B14FF480710548B1
:1002A00000F07BF9022000F01BF8022000F01EF89D
:1002B00010BD0000000C014010B5042000F048F80B
:1002C00050B14FF40071054800F067F9042000F0C8
:1002D00007F8042000F00AF810BD0000000C0140EF
:1002E000014908607047000014040140014908609A
:1002F00070470000140401401FB50220FFF7F6FF0D
:1003000000208DF80C000C208DF80D0002200290CA
:1003100001208DF80E0002A800F02EF80121002027
:1003200000F090F80420FFF7E1FF00208DF80400B2
:1003300008208DF805000420009001208DF80600AB
:10034000684600F019F80221002000F07BF81FBD7C
:10035000014600200022074B1B6803EA0102054BFF
:1003600014331B680B4013B10AB1012000E00020D8
:100370007047000000040140002123498279002ACF
:100380003AD00A46126803689A430B461A600A1D5F
:10039000126803689A430B1D1A60027911440A68B7
:1003A00003681A430A60184A0832126803689A43BD
:1003B000154B08331A601A1D126803689A43124BD2
:1003C0000C331A604279102A0ED11A1F1268036882
:1003D0001A430D4B08331A601A1D126803681A433A
:1003E000094B0C331A600DE00749427911440A6841
:1003F00003681A430A6005E0027911440A68036839
:100400009A430A60704700000004014008B50121CA
:10041000082000F03BF94FF44340ADF80000032002
:100420008DF8020010208DF803006946044800F0A2
:1004300029F84FF44341024800F0B1F808BD00002C
:10044000000C014030B500228B071C0F0F2303FA6C
:1004500004F20B4B8C1053F824309343084C8D104E
:1004600044F8253023468C1053F824308C07240F91
:1004700000FA04F42343024C8D1044F8253030BDBB
:10048000080001402DE9F041024600250026002029
:1004900000230024002791F803C00CF00F0591F809
:1004A00003C00CF0100CBCF1000F03D091F802C097
:1004B0004CEA050591F800C0BCF1000F31D014687A
:1004C00000202BE04FF0010C0CFA00F3B1F800C053
:1004D0000CEA03069E4220D183004FF00F0C0CFA69
:1004E00003F7BC4305FA03FC4CEA040491F803C08B
:1004F000BCF1280F06D14FF0010C0CFA00FCC2F839
:1005000014C00AE091F803C0BCF1480F05D14FF0C8
:10051000010C0CFA00FCC2F810C0401C0828D1D312
:100520001460B1F800C0BCF1FF0F34DD5468002046
:100530002EE000F1080C4FF0010808FA0CF3B1F8B6
:1005400000C00CEA03069E4221D183004FF00F0C3D
:100550000CFA03F7BC4305FA03FC4CEA040491F8D7
:1005600003C0BCF1280F05D100F1080C08FA0CF803
:10057000C2F8148091F803C0BCF1480F07D100F114
:10058000080C4FF0010808FA0CF8C2F81080401C63
:100590000828CED35460BDE8F08141617047016105
:1005A000704700BFFEE700BFFEE708B54FF4E0600C
:1005B00000F050F801208DF8030007208DF80000AE
:1005C00001208DF80200684600F00CF808208DF834
:1005D000000002208DF80200684600F003F808BD14
:1005E0007047000070B5002100230F22C47804B3C7
:1005F000154C246804F4E064C4F5E064210AC1F1F8
:100600000403CA40447804FA03F184781440214377
:1006100009010E4C0678A155047804F01F05012449
:10062000AC4005786D11AD0005F1E025C5F800413D
:1006300009E0047804F01F050124AC40044D06785D
:10064000761145F8264070BD0CED00E000E400E0B6
:1006500080E100E002490143024A11607047000056
:100660000000FA050CED00E07047000029B1064AD1
:10067000D2690243044BDA6104E0034AD26982433F
:10068000014BDA61704700000010024029B1064AB0
:1006900092690243044B9A6104E0034A92698243DF
:1006A000014B9A61704700000010024010B5012113
:1006B0000846FFF7DBFF01210820FFF7E7FF10BD29
:1006C000704710B500F002F810BD00000CB5002016
:1006D000019000903F48006840F480303D49086038
:1006E00000BF3C48006800F4003000900198401CB6
:1006F0000190009818B90198B0F5A06FF1D1354874
:10070000006800F4003010B10120009001E00020EA
:100710000090009801285CD12F48006840F010003C
:100720002D4908600846006820F00300086008466C
:10073000006840F00200086026484068254948608B
:100740000846406848600846406840F48060486059
:100750000846C06A214908401E49C8620846C06A66
:100760001F4908431B49C8620846006840F0806082
:10077000086000BF1748006800F000600028F9D04A
:100780001448406820F47C101249486008464068CC
:1007900040F4E81048600846006840F08070086047
:1007A00000BF0C48006800F000700028F9D009482C
:1007B000406820F00300074948600846406840F060
:1007C0000200486000BF0348406800F00C000828A1
:1007D000F9D10CBD001002400020024000F0FEFFE5
:1007E000440601007047000010B51648006840F04C
:1007F000010014490860084640681349084011493F
:10080000486008460068114908400E4908600846DB
:10081000006820F4802008600846406820F4FE004C
:1008200048600846006820F0A05008604FF47F0040
:1008300088600020C862FFF744FF4FF00060044961
:10084000086010BD001002400000FFF0FFFFF6FE40
:1008500008ED00E000BFFEE7FFF728FFFFF7D6FD39
:10086000FFF7A3FEFFF748FD00BFFEE77C08000886
:0C08700000000020600600008C01000861
:04000005080001519D
:00000001FF
